:04000000A5EF3CF03C
:107938008A0EC06E1200016EACA2FED701C0ADFF68
:10794800120000EE33F02B0EEE6AE806FDE10001AE
:107958001BEF3EF0036E0D0E036405D0000E026EA1
:10796800000E016E1200000EC26E0344E846FC0BC6
:10797800C26EC280C282C2B2FED7C290C3CF01F02B
:10798800C4CF02F01200000E0A6E08AE0AD0081E1C
:10799800071E061E056C000E062207220822010E8D
:1079A8000A6E04AE0AD0041E031E021E016C000EED
:1079B800022203220422010E0A1A000E0B6E000E88
:1079C8000C6E000E0D6E000E0E6E055006100710A0
:1079D8000810D8B42AD0010E096E06D0D890053602
:1079E800063607360836092A08AEF8D7D8900B3677
:1079F8000C360D360E360550015C065002580750FD
:107A0800035808500458D8A009D00550015E065004
:107A1800025A0750035A0850045A0B80D89008326B
:107A2800073206320532092EE1D70A50D8B408D0F9
:107A38000E1E0D1E0C1E0B6C000E0C220D220E22AB
:107A48000BC001F00CC002F00DC003F00EC004F032
:107A580012000FC013F010C014F011C015F012C0BE
:107A680016F0060ED8901336143615361636E82E4C
:107A7800F9D7131E141E151E161E132A000E1422E3
:107A880015221622000E1324016E6C0E1420026EAD
:107A9800DC0E1520036E020E1620046E0FC017F0C0
:107AA80010C018F011C019F012C01AF0060ED890C4
:107AB8001736183619361A36E82EF9D717C005F0D2
:107AC80018C006F019C007F01AC008F0C7EC3CF05F
:107AD80001C01BF002C01CF012BE4CD0125006E1CF
:107AE800C20E105C010E1158D8A044D00FC013F07C
:107AF80010C014F011C015F012C016F0040ED89082
:107B08001336143615361636E82EF9D7131E141EFA
:107B1800151E161E132A000E142215221622000EF8
:107B28001324016E6C0E1420026EDC0E1520036EF9
:107B3800020E1620046E0FC017F010C018F011C006
:107B480019F012C01AF0040ED890173618361936E4
:107B58001A36E82EF9D717C005F018C006F019C074
:107B680007F01AC008F0C7EC3CF001C01BF002C0D7
:107B78001CF0AC8412BE4FD0125008E1400E0F5CCE
:107B88000D0E1058030E1158D8A045D00FC013F091
:107B980010C014F011C015F012C016F0020ED890E3
:107BA8001336143615361636E82EF9D7131E141E5A
:107BB800151E161E132A000E142215221622000E58
:107BC8001324016E6C0E1420026EDC0E1520036E59
:107BD800020E1620046E0FC017F010C018F011C066
:107BE80019F012C01AF0020ED89017361836193646
:107BF8001A36E82EF9D717C005F018C006F019C0D4
:107C080007F01AC008F0C7EC3CF001C01BF002C036
:107C18001CF0AC84B8861C04D8B012001BC0AFFF9F
:107C2800AC98AB8E948E948CAB88AC8A12009390EF
:107C3800800E0F6E250E106E000E116E000E126E65
:107C48002DEC3DF09CEC3CF08A80000E446E000E5A
:107C5800436E000E466E000E456E000E486E000E16
:107C6800476E000E4A6E000E496E000E5C6E000EE6
:107C78005B6E000E336E000E346E000E356E000E15
:107C8800366E000E376E000E386E000E396E000E1E
:107C98003A6E000E3B6E000E3C6E000E3D6E000EFE
:107CA8003E6E000E3F6E000E406E000E416E000EDE
:107CB800426EBED0000EAEEC3CF001C04BF002C0EC
:107CC8004CF0010EAEEC3CF001C04DF002C04EF09D
:107CD800020EAEEC3CF001C04FF002C050F0030EB3
:107CE800AEEC3CF001C051F002C052F0000E326E12
:107CF800000E316E32BE08D0325005E1040E315C00
:107D0800D8B08CD001D08AD0D8903134D96E3234E2
:107D1800DA6E4B0ED926000EDA22010EDBBE77D0C2
:107D2800010EDB5004E10B0EDE5CD8A070D0D890B9
:107D38003134D96E3234DA6E430ED926000EDA2287
:107D4800DECF1DF0DDCF1EF0010E1D26000E1E2217
:107D5800D8903134D96E3234DA6E430ED926000EFB
:107D6800DA221DC0DEFF1EC0DDFF330E1D6E000EC1
:107D78001E6ED8903134D96E3234DA6ED890D93636
:107D8800DA361D50D9261E50DA22DECF1FF0DECF9C
:107D980020F0DECF21F0DECF22F0D8903134D96E3A
:107DA8003234DA6E4B0ED926000EDA22DECF23F0FB
:107DB800DDCF24F023C025F024C026F0000E26BE17
:107DC800FF0E276E286E1F502524296E205026206E
:107DD8002A6E215027202B6E225028202C6E330E1D
:107DE8002D6E000E2E6ED8903134D96E3234DA6E84
:107DF800D890D936DA362D50D9262E50DA2229C015
:107E0800DEFF2AC0DEFF2BC0DEFF2CC0DEFF314ABA
:107E1800322A32BE79D7325001E170D75B4A5C2AE8
:107E28009C0E1D6ED70EE82EFED71D2EFCD700F037
:107E38005CBE40D75C5004E1960E5B5CD8A03AD794
:107E4800000E306E000E2F6E30BE06D0305061E14D
:107E5800040E2F5CD8B05DD0D8902F34D96E303452
:107E6800DA6E430ED926000EDA22010EDBBE41D0AF
:107E7800010EDB5004E1150EDE5CD8A03AD0330EBB
:107E88001D6E000E1E6ED8902F34D96E3034DA6E07
:107E9800D890D936DA361D50D9261E50DA22DECFD0
:107EA80001F0DECF02F0DECF03F0DECF04F0D89091
:107EB8002F34D96E3034DA6E430ED926000EDA220A
:107EC800DECF05F0DDCF06F0000E06BEFF0E076E12
:107ED800086EC7EC3CF0D8902F34D96E3034DA6E87
:107EE800530ED926000EDA2201C0DEFF02C0DDFFE4
:107EF8000DD0D8902F34D96E3034DA6E530ED9267F
:107F0800000EDA22000EDE6E000EDD6E2F4A302AD9
:107F18009BD753501F0B5D6E5D509FEC3CF053C0D8
:107F28001DF054C01EF0050E1F6E1E341E321D3289
:107F38001F2EFBD71D5080095D6E5D509FEC3CF0F5
:107F480055501F0B20095D6E5D509FEC3CF020EEF4
:107F580055F0DECF1DF0DDCF1EF0050E1F6E1E346E
:107F68001E321D321F2EFBD71D50A0095D6E5D50BD
:107F78009FEC3CF057501F0B40095D6E5D509FEC25
:107F88003CF020EE57F0DECF1DF0DDCF1EF0050EE1
:107F98001F6E1E341E321D321F2EFBD71D50C10905
:107FA8005D6E5D509FEC3CF059501F0B60095D6E93
:107FB8005D509FEC3CF020EE59F0DECF1DF0DDCF98
:107FC8001EF0050E1F6E1E341E321D321F2EFBD7EB
:107FD8001D50E0095D6E5D509FEC3CF08A90070EE5
:107FE8001E6E170E1D6E6A0EE82EFED71D2EFCD7CC
:087FF8001E2EFAD700D028D696
:020000040020DA
:08000000FFFFFFFFFFFFFFFF00
:020000040030CA
:0E000000030E181EFF8181FF0FC00FE00F409E
:00000001FF
